{
  "contractName": "DomainKeeper",
  "abi": [
    {
      "anonymous": false,
      "inputs": [
        {
          "indexed": false,
          "internalType": "string",
          "name": "domain",
          "type": "string"
        },
        {
          "indexed": false,
          "internalType": "address",
          "name": "winner",
          "type": "address"
        },
        {
          "indexed": false,
          "internalType": "uint256",
          "name": "amount",
          "type": "uint256"
        }
      ],
      "name": "AuctionEnded",
      "type": "event"
    },
    {
      "anonymous": false,
      "inputs": [
        {
          "indexed": false,
          "internalType": "string",
          "name": "domain",
          "type": "string"
        },
        {
          "indexed": false,
          "internalType": "bytes32",
          "name": "dHash",
          "type": "bytes32"
        },
        {
          "indexed": false,
          "internalType": "address",
          "name": "account",
          "type": "address"
        },
        {
          "indexed": false,
          "internalType": "uint256",
          "name": "amount",
          "type": "uint256"
        }
      ],
      "name": "AuctionStarted",
      "type": "event"
    },
    {
      "anonymous": false,
      "inputs": [
        {
          "indexed": false,
          "internalType": "string",
          "name": "domain",
          "type": "string"
        },
        {
          "indexed": false,
          "internalType": "address",
          "name": "bidder",
          "type": "address"
        },
        {
          "indexed": false,
          "internalType": "uint256",
          "name": "amount",
          "type": "uint256"
        }
      ],
      "name": "HighestBidIncreased",
      "type": "event"
    },
    {
      "constant": false,
      "inputs": [
        {
          "internalType": "string",
          "name": "_domainame",
          "type": "string"
        },
        {
          "internalType": "string",
          "name": "_Ipv4",
          "type": "string"
        },
        {
          "internalType": "string",
          "name": "_Ipv6",
          "type": "string"
        }
      ],
      "name": "ConfigureDomain",
      "outputs": [],
      "payable": true,
      "stateMutability": "payable",
      "type": "function"
    },
    {
      "constant": true,
      "inputs": [
        {
          "internalType": "string",
          "name": "_domainame",
          "type": "string"
        }
      ],
      "name": "getDomainInfo",
      "outputs": [
        {
          "internalType": "string",
          "name": "state",
          "type": "string"
        },
        {
          "internalType": "string",
          "name": "ipv4",
          "type": "string"
        },
        {
          "internalType": "string",
          "name": "ipv6",
          "type": "string"
        },
        {
          "internalType": "address",
          "name": "owner",
          "type": "address"
        }
      ],
      "payable": false,
      "stateMutability": "view",
      "type": "function"
    },
    {
      "constant": false,
      "inputs": [
        {
          "internalType": "string",
          "name": "_domainame",
          "type": "string"
        }
      ],
      "name": "claim",
      "outputs": [],
      "payable": true,
      "stateMutability": "payable",
      "type": "function"
    },
    {
      "constant": false,
      "inputs": [
        {
          "internalType": "string",
          "name": "_domainame",
          "type": "string"
        },
        {
          "internalType": "address",
          "name": "_owner",
          "type": "address"
        }
      ],
      "name": "addDomain",
      "outputs": [],
      "payable": false,
      "stateMutability": "nonpayable",
      "type": "function"
    },
    {
      "constant": true,
      "inputs": [
        {
          "internalType": "string",
          "name": "_domainame",
          "type": "string"
        }
      ],
      "name": "getOwner",
      "outputs": [
        {
          "internalType": "address",
          "name": "",
          "type": "address"
        }
      ],
      "payable": false,
      "stateMutability": "view",
      "type": "function"
    },
    {
      "constant": false,
      "inputs": [
        {
          "internalType": "string",
          "name": "_domain",
          "type": "string"
        }
      ],
      "name": "bid",
      "outputs": [],
      "payable": true,
      "stateMutability": "payable",
      "type": "function"
    },
    {
      "constant": false,
      "inputs": [
        {
          "internalType": "string",
          "name": "_domain",
          "type": "string"
        }
      ],
      "name": "withdraw",
      "outputs": [],
      "payable": false,
      "stateMutability": "nonpayable",
      "type": "function"
    },
    {
      "constant": false,
      "inputs": [
        {
          "internalType": "string",
          "name": "_domain",
          "type": "string"
        }
      ],
      "name": "auctionEnd",
      "outputs": [],
      "payable": false,
      "stateMutability": "nonpayable",
      "type": "function"
    },
    {
      "constant": true,
      "inputs": [
        {
          "internalType": "string",
          "name": "_domain",
          "type": "string"
        }
      ],
      "name": "getAuctionState",
      "outputs": [
        {
          "internalType": "string",
          "name": "",
          "type": "string"
        },
        {
          "internalType": "address",
          "name": "",
          "type": "address"
        },
        {
          "internalType": "uint256",
          "name": "",
          "type": "uint256"
        },
        {
          "internalType": "uint256",
          "name": "",
          "type": "uint256"
        },
        {
          "internalType": "bool",
          "name": "",
          "type": "bool"
        },
        {
          "internalType": "bool",
          "name": "",
          "type": "bool"
        }
      ],
      "payable": false,
      "stateMutability": "view",
      "type": "function"
    },
    {
      "constant": true,
      "inputs": [
        {
          "internalType": "string",
          "name": "_domain",
          "type": "string"
        }
      ],
      "name": "getAuctionStateBidder",
      "outputs": [
        {
          "internalType": "address",
          "name": "",
          "type": "address"
        }
      ],
      "payable": false,
      "stateMutability": "view",
      "type": "function"
    },
    {
      "constant": true,
      "inputs": [
        {
          "internalType": "string",
          "name": "_domain",
          "type": "string"
        }
      ],
      "name": "getAuctionStateBid",
      "outputs": [
        {
          "internalType": "uint256",
          "name": "",
          "type": "uint256"
        }
      ],
      "payable": false,
      "stateMutability": "view",
      "type": "function"
    },
    {
      "constant": true,
      "inputs": [
        {
          "internalType": "string",
          "name": "_domain",
          "type": "string"
        }
      ],
      "name": "getAuctionStateExists",
      "outputs": [
        {
          "internalType": "bool",
          "name": "",
          "type": "bool"
        }
      ],
      "payable": false,
      "stateMutability": "view",
      "type": "function"
    },
    {
      "constant": true,
      "inputs": [
        {
          "internalType": "string",
          "name": "_domain",
          "type": "string"
        }
      ],
      "name": "getAuctionStateReturns",
      "outputs": [
        {
          "internalType": "uint256",
          "name": "",
          "type": "uint256"
        }
      ],
      "payable": false,
      "stateMutability": "view",
      "type": "function"
    }
  ],
  "bytecode": "0x608060405234801561001057600080fd5b5061249b806100206000396000f3fe6080604052600436106100c25760003560e01c80634eff5d3f1161007f57806385ed127c1161005957806385ed127c14610a96578063ae34503814610b7e578063ce4519e714610d67578063f3fe12c914610e6f576100c2565b80634eff5d3f1461083357806352852131146109135780637aef951c146109db576100c2565b80631442c38d146100c757806331fb67c2146101a35780633f7bf6e41461026b578063481efe97146104035780634889e192146104df5780634aaf4a121461072b575b600080fd5b3480156100d357600080fd5b5061018d600480360360208110156100ea57600080fd5b810190808035906020019064010000000081111561010757600080fd5b82018360208201111561011957600080fd5b8035906020019184600183028401116401000000008311171561013b57600080fd5b91908080601f016020809104026020016040519081016040528093929190818152602001838380828437600081840152601f19601f820116905080830192505050505050509192919290505050610f2a565b6040518082815260200191505060405180910390f35b3480156101af57600080fd5b50610269600480360360208110156101c657600080fd5b81019080803590602001906401000000008111156101e357600080fd5b8201836020820111156101f557600080fd5b8035906020019184600183028401116401000000008311171561021757600080fd5b91908080601f016020809104026020016040519081016040528093929190818152602001838380828437600081840152601f19601f820116905080830192505050505050509192919290505050610f52565b005b34801561027757600080fd5b506103316004803603602081101561028e57600080fd5b81019080803590602001906401000000008111156102ab57600080fd5b8201836020820111156102bd57600080fd5b803590602001918460018302840111640100000000831117156102df57600080fd5b91908080601f016020809104026020016040519081016040528093929190818152602001838380828437600081840152601f19601f820116905080830192505050505050509192919290505050611066565b60405180806020018773ffffffffffffffffffffffffffffffffffffffff1673ffffffffffffffffffffffffffffffffffffffff1681526020018681526020018581526020018415151515815260200183151515158152602001828103825288818151815260200191508051906020019080838360005b838110156103c35780820151818401526020810190506103a8565b50505050905090810190601f1680156103f05780820380516001836020036101000a031916815260200191505b5097505050505050505060405180910390f35b34801561040f57600080fd5b506104c96004803603602081101561042657600080fd5b810190808035906020019064010000000081111561044357600080fd5b82018360208201111561045557600080fd5b8035906020019184600183028401116401000000008311171561047757600080fd5b91908080601f016020809104026020016040519081016040528093929190818152602001838380828437600081840152601f19601f820116905080830192505050505050509192919290505050611140565b6040518082815260200191505060405180910390f35b3480156104eb57600080fd5b506105a56004803603602081101561050257600080fd5b810190808035906020019064010000000081111561051f57600080fd5b82018360208201111561053157600080fd5b8035906020019184600183028401116401000000008311171561055357600080fd5b91908080601f016020809104026020016040519081016040528093929190818152602001838380828437600081840152601f19601f8201169050808301925050505050505091929192905050506111a5565b604051808060200180602001806020018573ffffffffffffffffffffffffffffffffffffffff1673ffffffffffffffffffffffffffffffffffffffff168152602001848103845288818151815260200191508051906020019080838360005b8381101561061f578082015181840152602081019050610604565b50505050905090810190601f16801561064c5780820380516001836020036101000a031916815260200191505b50848103835287818151815260200191508051906020019080838360005b8381101561068557808201518184015260208101905061066a565b50505050905090810190601f1680156106b25780820380516001836020036101000a031916815260200191505b50848103825286818151815260200191508051906020019080838360005b838110156106eb5780820151818401526020810190506106d0565b50505050905090810190601f1680156107185780820380516001836020036101000a031916815260200191505b5097505050505050505060405180910390f35b34801561073757600080fd5b506107f16004803603602081101561074e57600080fd5b810190808035906020019064010000000081111561076b57600080fd5b82018360208201111561077d57600080fd5b8035906020019184600183028401116401000000008311171561079f57600080fd5b91908080601f016020809104026020016040519081016040528093929190818152602001838380828437600081840152601f19601f820116905080830192505050505050509192919290505050611369565b604051808273ffffffffffffffffffffffffffffffffffffffff1673ffffffffffffffffffffffffffffffffffffffff16815260200191505060405180910390f35b34801561083f57600080fd5b506108f96004803603602081101561085657600080fd5b810190808035906020019064010000000081111561087357600080fd5b82018360208201111561088557600080fd5b803590602001918460018302840111640100000000831117156108a757600080fd5b91908080601f016020809104026020016040519081016040528093929190818152602001838380828437600081840152601f19601f820116905080830192505050505050509192919290505050611438565b604051808215151515815260200191505060405180910390f35b34801561091f57600080fd5b506109d96004803603602081101561093657600080fd5b810190808035906020019064010000000081111561095357600080fd5b82018360208201111561096557600080fd5b8035906020019184600183028401116401000000008311171561098757600080fd5b91908080601f016020809104026020016040519081016040528093929190818152602001838380828437600081840152601f19601f82011690508083019250505050505050919291929050505061146d565b005b610a94600480360360208110156109f157600080fd5b8101908080359060200190640100000000811115610a0e57600080fd5b820183602082011115610a2057600080fd5b80359060200191846001830284011164010000000083111715610a4257600080fd5b91908080601f016020809104026020016040519081016040528093929190818152602001838380828437600081840152601f19601f82011690508083019250505050505050919291929050505061176c565b005b348015610aa257600080fd5b50610b7c60048036036040811015610ab957600080fd5b8101908080359060200190640100000000811115610ad657600080fd5b820183602082011115610ae857600080fd5b80359060200191846001830284011164010000000083111715610b0a57600080fd5b91908080601f016020809104026020016040519081016040528093929190818152602001838380828437600081840152601f19601f820116905080830192505050505050509192919290803573ffffffffffffffffffffffffffffffffffffffff169060200190929190505050611cc0565b005b610d6560048036036060811015610b9457600080fd5b8101908080359060200190640100000000811115610bb157600080fd5b820183602082011115610bc357600080fd5b80359060200191846001830284011164010000000083111715610be557600080fd5b91908080601f016020809104026020016040519081016040528093929190818152602001838380828437600081840152601f19601f82011690508083019250505050505050919291929080359060200190640100000000811115610c4857600080fd5b820183602082011115610c5a57600080fd5b80359060200191846001830284011164010000000083111715610c7c57600080fd5b91908080601f016020809104026020016040519081016040528093929190818152602001838380828437600081840152601f19601f82011690508083019250505050505050919291929080359060200190640100000000811115610cdf57600080fd5b820183602082011115610cf157600080fd5b80359060200191846001830284011164010000000083111715610d1357600080fd5b91908080601f016020809104026020016040519081016040528093929190818152602001838380828437600081840152601f19601f820116905080830192505050505050509192919290505050611d7e565b005b348015610d7357600080fd5b50610e2d60048036036020811015610d8a57600080fd5b8101908080359060200190640100000000811115610da757600080fd5b820183602082011115610db957600080fd5b80359060200191846001830284011164010000000083111715610ddb57600080fd5b91908080601f016020809104026020016040519081016040528093929190818152602001838380828437600081840152601f19601f820116905080830192505050505050509192919290505050611f21565b604051808273ffffffffffffffffffffffffffffffffffffffff1673ffffffffffffffffffffffffffffffffffffffff16815260200191505060405180910390f35b610f2860048036036020811015610e8557600080fd5b8101908080359060200190640100000000811115610ea257600080fd5b820183602082011115610eb457600080fd5b80359060200191846001830284011164010000000083111715610ed657600080fd5b91908080601f016020809104026020016040519081016040528093929190818152602001838380828437600081840152601f19601f820116905080830192505050505050509192919290505050611f69565b005b600060016000610f39846120e0565b8152602001908152602001600020600201549050919050565b6000610f5d826120e0565b905060006001600083815260200190815260200160002060030160003373ffffffffffffffffffffffffffffffffffffffff1673ffffffffffffffffffffffffffffffffffffffff16815260200190815260200160002054905060008111156110615760006001600084815260200190815260200160002060030160003373ffffffffffffffffffffffffffffffffffffffff1673ffffffffffffffffffffffffffffffffffffffff168152602001908152602001600020819055503373ffffffffffffffffffffffffffffffffffffffff166108fc829081150290604051600060405180830381858888f1935050505015801561105f573d6000803e3d6000fd5b505b505050565b606060008060008060008061107a886120e0565b9050876001600083815260200190815260200160002060010160009054906101000a900473ffffffffffffffffffffffffffffffffffffffff16600160008481526020019081526020016000206002015460016000858152602001908152602001600020600001546001600086815260200190815260200160002060040160009054906101000a900460ff166001600087815260200190815260200160002060040160019054906101000a900460ff169650965096509650965096505091939550919395565b60006001600061114f846120e0565b815260200190815260200160002060030160003373ffffffffffffffffffffffffffffffffffffffff1673ffffffffffffffffffffffffffffffffffffffff168152602001908152602001600020549050919050565b60608060606000806111b6866120e0565b90506111c18161215b565b60008083815260200190815260200160002060020160008084815260200190815260200160002060030160008085815260200190815260200160002060000160009054906101000a900473ffffffffffffffffffffffffffffffffffffffff16828054600181600116156101000203166002900480601f0160208091040260200160405190810160405280929190818152602001828054600181600116156101000203166002900480156112b65780601f1061128b576101008083540402835291602001916112b6565b820191906000526020600020905b81548152906001019060200180831161129957829003601f168201915b50505050509250818054600181600116156101000203166002900480601f0160208091040260200160405190810160405280929190818152602001828054600181600116156101000203166002900480156113525780601f1061132757610100808354040283529160200191611352565b820191906000526020600020905b81548152906001019060200180831161133557829003601f168201915b505050505091509450945094509450509193509193565b600080611375836120e0565b9050600080600083815260200190815260200160002060010180546001816001161561010002031660029004905014156113fa576040517f08c379a000000000000000000000000000000000000000000000000000000000815260040180806020018281038252602281526020018061241a6022913960400191505060405180910390fd5b60008082815260200190815260200160002060000160009054906101000a900473ffffffffffffffffffffffffffffffffffffffff16915050919050565b600060016000611447846120e0565b815260200190815260200160002060040160019054906101000a900460ff169050919050565b6000611478826120e0565b90506001600082815260200190815260200160002060040160019054906101000a900460ff16611510576040517f08c379a00000000000000000000000000000000000000000000000000000000081526004018080602001828103825260178152602001807f4e6f20737563682061756374696f6e206573697374732e00000000000000000081525060200191505060405180910390fd5b600160008281526020019081526020016000206000015442101561159c576040517f08c379a00000000000000000000000000000000000000000000000000000000081526004018080602001828103825260168152602001807f41756374696f6e206e6f742079657420656e6465642e0000000000000000000081525060200191505060405180910390fd5b6001600082815260200190815260200160002060040160009054906101000a900460ff1615611616576040517f08c379a00000000000000000000000000000000000000000000000000000000081526004018080602001828103825260238152602001806123f76023913960400191505060405180910390fd5b600180600083815260200190815260200160002060040160006101000a81548160ff0219169083151502179055507fa0fb15ce4bc38fa6151bf16630e38863764a7bb541866d083619bc5b6b93ad02826001600084815260200190815260200160002060010160009054906101000a900473ffffffffffffffffffffffffffffffffffffffff16600160008581526020019081526020016000206002015460405180806020018473ffffffffffffffffffffffffffffffffffffffff1673ffffffffffffffffffffffffffffffffffffffff168152602001838152602001828103825285818151815260200191508051906020019080838360005b8381101561172c578082015181840152602081019050611711565b50505050905090810190601f1680156117595780820380516001836020036101000a031916815260200191505b5094505050505060405180910390a15050565b6000611777826120e0565b90506001600082815260200190815260200160002060040160019054906101000a900460ff1661197257603c42016001600083815260200190815260200160002060000181905550336001600083815260200190815260200160002060010160006101000a81548173ffffffffffffffffffffffffffffffffffffffff021916908373ffffffffffffffffffffffffffffffffffffffff160217905550346001600083815260200190815260200160002060020181905550600180600083815260200190815260200160002060040160016101000a81548160ff02191690831515021790555060006001600083815260200190815260200160002060040160006101000a81548160ff0219169083151502179055507fb58d2ff6d5c49baa35d70b8a06a9750ff07a7e76647507467875b932c683a98d8282333460405180806020018581526020018473ffffffffffffffffffffffffffffffffffffffff1673ffffffffffffffffffffffffffffffffffffffff168152602001838152602001828103825286818151815260200191508051906020019080838360005b8381101561192f578082015181840152602081019050611914565b50505050905090810190601f16801561195c5780820380516001836020036101000a031916815260200191505b509550505050505060405180910390a150611cbd565b60016000828152602001908152602001600020600001544211156119fe576040517f08c379a00000000000000000000000000000000000000000000000000000000081526004018080602001828103825260168152602001807f41756374696f6e20616c726561647920656e6465642e0000000000000000000081525060200191505060405180910390fd5b60016000828152602001908152602001600020600201543411611a89576040517f08c379a000000000000000000000000000000000000000000000000000000000815260040180806020018281038252601e8152602001807f546865726520616c7265616479206973206120686967686572206269642e000081525060200191505060405180910390fd5b6000600160008381526020019081526020016000206002015414611b555760016000828152602001908152602001600020600201546001600083815260200190815260200160002060030160006001600085815260200190815260200160002060010160009054906101000a900473ffffffffffffffffffffffffffffffffffffffff1673ffffffffffffffffffffffffffffffffffffffff1673ffffffffffffffffffffffffffffffffffffffff168152602001908152602001600020600082825401925050819055505b336001600083815260200190815260200160002060010160006101000a81548173ffffffffffffffffffffffffffffffffffffffff021916908373ffffffffffffffffffffffffffffffffffffffff160217905550346001600083815260200190815260200160002060020181905550603c420160016000838152602001908152602001600020600001819055507f09ebc52e266ac5a74a7023baa944297cebe45e95d491a17e87d3ab92694bac5782333460405180806020018473ffffffffffffffffffffffffffffffffffffffff1673ffffffffffffffffffffffffffffffffffffffff168152602001838152602001828103825285818151815260200191508051906020019080838360005b83811015611c7f578082015181840152602081019050611c64565b50505050905090810190601f168015611cac5780820380516001836020036101000a031916815260200191505b5094505050505060405180910390a1505b50565b6000611ccb836120e0565b9050826000808381526020019081526020016000206001019080519060200190611cf692919061232d565b508160008083815260200190815260200160002060000160006101000a81548173ffffffffffffffffffffffffffffffffffffffff021916908373ffffffffffffffffffffffffffffffffffffffff160217905550600160008083815260200190815260200160002060040160006101000a81548160ff021916908315150217905550505050565b6000611d89846120e0565b905060008060008381526020019081526020016000206001018054600181600116156101000203166002900490501415611e0e576040517f08c379a000000000000000000000000000000000000000000000000000000000815260040180806020018281038252602281526020018061241a6022913960400191505060405180910390fd5b3373ffffffffffffffffffffffffffffffffffffffff1660008083815260200190815260200160002060000160009054906101000a900473ffffffffffffffffffffffffffffffffffffffff1673ffffffffffffffffffffffffffffffffffffffff1614611ec7576040517f08c379a000000000000000000000000000000000000000000000000000000000815260040180806020018281038252602b81526020018061243c602b913960400191505060405180910390fd5b826000808381526020019081526020016000206002019080519060200190611ef092919061232d565b50816000808381526020019081526020016000206003019080519060200190611f1a92919061232d565b5050505050565b600060016000611f30846120e0565b815260200190815260200160002060010160009054906101000a900473ffffffffffffffffffffffffffffffffffffffff169050919050565b6000611f74826120e0565b90503373ffffffffffffffffffffffffffffffffffffffff166001600083815260200190815260200160002060010160009054906101000a900473ffffffffffffffffffffffffffffffffffffffff1673ffffffffffffffffffffffffffffffffffffffff1614612030576040517f08c379a00000000000000000000000000000000000000000000000000000000081526004018080602001828103825260248152602001806123d36024913960400191505060405180910390fd5b81600080838152602001908152602001600020600101908051906020019061205992919061232d565b503360008083815260200190815260200160002060000160006101000a81548173ffffffffffffffffffffffffffffffffffffffff021916908373ffffffffffffffffffffffffffffffffffffffff160217905550600160008083815260200190815260200160002060040160006101000a81548160ff0219169083151502179055505050565b6000816040516020018082805190602001908083835b6020831061211957805182526020820191506020810190506020830392506120f6565b6001836020036101000a038019825116818451168082178552505050505050905001915050604051602081830303815290604052805190602001209050919050565b606060008083815260200190815260200160002060040160009054906101000a900460ff1680156121ee5750600073ffffffffffffffffffffffffffffffffffffffff1660008084815260200190815260200160002060000160009054906101000a900473ffffffffffffffffffffffffffffffffffffffff1673ffffffffffffffffffffffffffffffffffffffff1614155b15612230576040518060400160405280600a81526020017f72656769737465726564000000000000000000000000000000000000000000008152509050612328565b60008083815260200190815260200160002060040160009054906101000a900460ff1615801561228057506001600083815260200190815260200160002060040160019054906101000a900460ff165b80156122ad57506001600083815260200190815260200160002060040160009054906101000a900460ff16155b156122ef576040518060400160405280600981526020017f696e61756374696f6e00000000000000000000000000000000000000000000008152509050612328565b6040518060400160405280600481526020017f667265650000000000000000000000000000000000000000000000000000000081525090505b919050565b828054600181600116156101000203166002900490600052602060002090601f016020900481019282601f1061236e57805160ff191683800117855561239c565b8280016001018555821561239c579182015b8281111561239b578251825591602001919060010190612380565b5b5090506123a991906123ad565b5090565b6123cf91905b808211156123cb5760008160009055506001016123b3565b5090565b9056fe596f7520617265206e6f7420746865206f776e6572206f66207468697320646f6d61696e61756374696f6e456e642068617320616c7265616479206265656e2063616c6c65642e6e6f7420646f6d61696e20726567697374657220776974682074686174206e616d654572726f722c20796f7520617265206e6f7420746865206f776e6572206f66207468697320646f6d61696ea265627a7a72315820ff161ceaa20cb471c70c45b1c1240068392cd40949c05b1c51347150488e60ba64736f6c63430005100032",
  "source": "pragma solidity >=0.5.0 <0.7.0;\r\n\r\n\r\ncontract DomainKeeper {\r\n\r\n    //struct to keep all the data of the registered domains:\r\n    struct iDomain {\r\n        address owner;\r\n        string domainname;\r\n        string Ipv4;\r\n        string Ipv6;\r\n        bool exists;\r\n    }\r\n\r\n    mapping(bytes32 => iDomain) domains;\r\n\r\n\r\n    /// Single place to do the domain name hashing.\r\n    function hashDomain(string memory domain) private pure returns (bytes32) {\r\n        return keccak256(abi.encodePacked(domain));\r\n    }\r\n\r\n    /// Figures out the current state of a domain\r\n    /// Possible states are: registered, inauction or free\r\n    function calcDomainState(bytes32 dHash) private view returns (string memory) {\r\n        if(domains[dHash].exists && domains[dHash].owner != address(0)) {\r\n            return \"registered\";\r\n        }\r\n\r\n        else if(!domains[dHash].exists && auctions[dHash].exists && !auctions[dHash].ended) {\r\n\r\n            return \"inauction\";\r\n        }\r\n        else{\r\n            return \"free\";\r\n        }\r\n\r\n    }\r\n\r\n    /// Function the user will call to modify the IPS\r\n    /// Only the owner of the domain is Allowed to change this information.\r\n    function ConfigureDomain(string memory _domainame, string memory _Ipv4, string memory _Ipv6) public payable {\r\n        //require(condition, message);(auctions[dh].owner== msg....\r\n        bytes32 dh = hashDomain(_domainame);\r\n        require(bytes(domains[dh].domainname).length != 0, \"not domain register with that name\");\r\n        require(domains[dh].owner == msg.sender, \"Error, you are not the owner of this domain\");\r\n        domains[dh].Ipv4 = _Ipv4;\r\n        domains[dh].Ipv6 = _Ipv6;\r\n    }\r\n\r\n    /// Function that retunrs the information about a especifict domain\r\n   function getDomainInfo(string memory _domainame) public view returns (string memory state, string memory ipv4, string memory ipv6, address owner)    {\r\n        bytes32 dh = hashDomain(_domainame);\r\n        return (calcDomainState(dh), domains[dh].Ipv4, domains[dh].Ipv6, domains[dh].owner);\r\n\r\n    }\r\n    /// The claim methos is gonna save the new domains with the respective owner.\r\n    function claim(string memory _domainame) public payable {\r\n        bytes32 dh = hashDomain(_domainame);\r\n        require(auctions[dh].highestBidder == msg.sender, \"You are not the owner of this domain\");\r\n        domains[dh].domainname = _domainame;\r\n        domains[dh].owner = msg.sender;\r\n        domains[dh].exists = true;\r\n    }\r\n\r\n    /// This function is here only for checking the code works:\r\n    function addDomain(string memory _domainame, address _owner) public {\r\n        bytes32 dh = hashDomain(_domainame);\r\n        domains[dh].domainname = _domainame;\r\n        domains[dh].owner = _owner;\r\n        domains[dh].exists = true;\r\n\r\n    }\r\n\r\n    /// Retunrs the address of the owner of a domain:\r\n    function getOwner(string memory _domainame) public view returns (address) {\r\n        bytes32 dh = hashDomain(_domainame);\r\n        require(bytes(domains[dh].domainname).length != 0, \"not domain register with that name\");\r\n        return domains[dh].owner;\r\n    }\r\n\r\n    // ========================================================\r\n    // AUCTION STUFF\r\n    // Based on: https://solidity.readthedocs.io/en/v0.6.6/solidity-by-example.html#simple-open-auction\r\n    // ========================================================\r\n\r\n    struct iAuction {\r\n        uint256 auctionEndTime;\r\n        address highestBidder;\r\n        uint256 highestBid;\r\n        mapping(address => uint256) pendingReturns; // Allowed withdrawals of previous bids\r\n        bool ended; // Set to true at the end, disallows any change.\r\n        bool exists;\r\n    }\r\n\r\n    mapping(bytes32 => iAuction) auctions;\r\n\r\n    // Auction Events\r\n    event AuctionStarted(string domain, bytes32 dHash, address account, uint256 amount);\r\n    event AuctionEnded(string domain, address winner, uint256 amount);\r\n    event HighestBidIncreased(string domain, address bidder, uint256 amount);\r\n\r\n\r\n    /// Bid on the auction with the value sent together with this transaction.\r\n    /// The value will only be refunded if the auction is not won.\r\n    function bid(string memory _domain) public payable {\r\n        bytes32 dh = hashDomain(_domain);\r\n\r\n        // create new auction if no entry is available.\r\n        if (!auctions[dh].exists) {\r\n            auctions[dh].auctionEndTime = now + 1 minutes;\r\n            auctions[dh].highestBidder = msg.sender;\r\n            auctions[dh].highestBid = msg.value;\r\n            auctions[dh].exists = true;\r\n            auctions[dh].ended = false;\r\n\r\n            emit AuctionStarted(_domain, dh, msg.sender, msg.value);\r\n            return;\r\n        }\r\n\r\n        //require(condition, message);(auctions[dh].ended)\r\n\r\n        // Revert the call if the bidding period is over.\r\n        require(now <= auctions[dh].auctionEndTime, \"Auction already ended.\");\r\n\r\n        // If the bid is not higher, send the money back.\r\n        require(msg.value > auctions[dh].highestBid, \"There already is a higher bid.\");\r\n\r\n        if (auctions[dh].highestBid != 0) {\r\n            // Let the recipients withdraw their money themselves with withdraw().\r\n            auctions[dh].pendingReturns[auctions[dh].highestBidder] += auctions[dh].highestBid;\r\n        }\r\n        auctions[dh].highestBidder = msg.sender;\r\n        auctions[dh].highestBid = msg.value;\r\n        auctions[dh].auctionEndTime = now + 1 minutes;\r\n\r\n        emit HighestBidIncreased(_domain, msg.sender, msg.value);\r\n    }\r\n\r\n    function withdraw(string memory _domain) public {\r\n        bytes32 dh = hashDomain(_domain);\r\n\r\n        // require(auctions[dh].exists, \"No runnning auction for this domain.\");\r\n\r\n        // might not be so important?\r\n        // No withdrawel during a running auction\r\n        // require(auctions[dh].ended, \"Auction still running.\");\r\n\r\n        uint256 amount = auctions[dh].pendingReturns[msg.sender];\r\n        if (amount > 0) {\r\n            // Set this to zero to prevent double spending.\r\n            auctions[dh].pendingReturns[msg.sender] = 0;\r\n            msg.sender.transfer(amount);\r\n        }\r\n    }\r\n\r\n    /// End the auction and send the highest bid to the beneficiary.\r\n    function auctionEnd(string memory _domain) public {\r\n        bytes32 dh = hashDomain(_domain);\r\n\r\n        // 1. Conditions\r\n        require(auctions[dh].exists, \"No such auction esists.\");\r\n        require(now >= auctions[dh].auctionEndTime, \"Auction not yet ended.\");\r\n        require(!auctions[dh].ended, \"auctionEnd has already been called.\");\r\n\r\n        // 2. Effects\r\n        auctions[dh].ended = true;\r\n        emit AuctionEnded(_domain, auctions[dh].highestBidder, auctions[dh].highestBid);\r\n\r\n        // 3. Interaction\r\n        //address(this).transfer(auctions[dHash].highestBid);\r\n    }\r\n\r\n    /// Lets you check the state of an auction and returns the following attributes:\r\n    /// - Domain\r\n    /// - Address of highest bidder\r\n    /// - Amount of the highest bid\r\n    /// - Auction end time\r\n    /// - Flag indicating if ended or not\r\n    /// - Flag indicating if exists or not\r\n    function getAuctionState(string memory _domain) public view returns (string memory, address, uint256, uint256, bool, bool) {\r\n        bytes32 dh = hashDomain(_domain);\r\n        \r\n        return (\r\n            _domain,\r\n            auctions[dh].highestBidder,\r\n            auctions[dh].highestBid,\r\n            auctions[dh].auctionEndTime,\r\n            auctions[dh].ended,\r\n            auctions[dh].exists\r\n        );\r\n    }\r\n\r\n    function getAuctionStateBidder(string memory _domain) public view returns (address) {\r\n        return (auctions[hashDomain(_domain)].highestBidder);\r\n    }\r\n\r\n    function getAuctionStateBid(string memory _domain) public view returns (uint256) {\r\n        return (auctions[hashDomain(_domain)].highestBid);\r\n    }\r\n\r\n    function getAuctionStateExists(string memory _domain) public view returns (bool) {\r\n        return (auctions[hashDomain(_domain)].exists);\r\n    }\r\n\r\n    function getAuctionStateReturns(string memory _domain) public view returns (uint256) {\r\n        return (auctions[hashDomain(_domain)].pendingReturns[msg.sender]);\r\n    }\r\n}\r\n",
  "sourcePath": "C:\\Users\\Dani\\Downloads\\School\\Truffle\\contracts\\DomainKeeper.sol",
  "compiler": {
    "name": "solc",
    "version": "0.5.16+commit.9c3226ce.Emscripten.clang"
  },
  "schemaVersion": "3.1.0",
  "updatedAt": "2020-05-08T15:16:04.227Z",
  "networkType": "ethereum",
  "devdoc": {
    "methods": {}
  },
  "userdoc": {
    "methods": {
      "ConfigureDomain(string,string,string)": {
        "notice": "Function the user will call to modify the IPS Only the owner of the domain is Allowed to change this information."
      },
      "addDomain(string,address)": {
        "notice": "This function is here only for checking the code works:"
      },
      "auctionEnd(string)": {
        "notice": "End the auction and send the highest bid to the beneficiary."
      },
      "bid(string)": {
        "notice": "Bid on the auction with the value sent together with this transaction. The value will only be refunded if the auction is not won."
      },
      "claim(string)": {
        "notice": "The claim methos is gonna save the new domains with the respective owner."
      },
      "getAuctionState(string)": {
        "notice": "Lets you check the state of an auction and returns the following attributes: - Domain - Address of highest bidder - Amount of the highest bid - Auction end time - Flag indicating if ended or not - Flag indicating if exists or not"
      },
      "getDomainInfo(string)": {
        "notice": "Function that retunrs the information about a especifict domain"
      },
      "getOwner(string)": {
        "notice": "Retunrs the address of the owner of a domain:"
      }
    }
  }
}