{
  "contractName": "DomainKeeper",
  "abi": [
    {
      "anonymous": false,
      "inputs": [
        {
          "indexed": false,
          "internalType": "string",
          "name": "domain",
          "type": "string"
        },
        {
          "indexed": false,
          "internalType": "address",
          "name": "winner",
          "type": "address"
        },
        {
          "indexed": false,
          "internalType": "uint256",
          "name": "amount",
          "type": "uint256"
        }
      ],
      "name": "AuctionEnded",
      "type": "event"
    },
    {
      "anonymous": false,
      "inputs": [
        {
          "indexed": false,
          "internalType": "string",
          "name": "domain",
          "type": "string"
        },
        {
          "indexed": false,
          "internalType": "uint256",
          "name": "extensionTime",
          "type": "uint256"
        },
        {
          "indexed": false,
          "internalType": "uint256",
          "name": "newEndTime",
          "type": "uint256"
        }
      ],
      "name": "AuctionExtended",
      "type": "event"
    },
    {
      "anonymous": false,
      "inputs": [
        {
          "indexed": false,
          "internalType": "string",
          "name": "domain",
          "type": "string"
        },
        {
          "indexed": false,
          "internalType": "bytes32",
          "name": "dHash",
          "type": "bytes32"
        },
        {
          "indexed": false,
          "internalType": "address",
          "name": "account",
          "type": "address"
        },
        {
          "indexed": false,
          "internalType": "uint256",
          "name": "amount",
          "type": "uint256"
        }
      ],
      "name": "AuctionStarted",
      "type": "event"
    },
    {
      "anonymous": false,
      "inputs": [
        {
          "indexed": false,
          "internalType": "string",
          "name": "domain",
          "type": "string"
        },
        {
          "indexed": false,
          "internalType": "address",
          "name": "bidder",
          "type": "address"
        },
        {
          "indexed": false,
          "internalType": "uint256",
          "name": "amount",
          "type": "uint256"
        }
      ],
      "name": "HighestBidIncreased",
      "type": "event"
    },
    {
      "anonymous": false,
      "inputs": [
        {
          "indexed": false,
          "internalType": "string",
          "name": "domain",
          "type": "string"
        },
        {
          "indexed": false,
          "internalType": "address",
          "name": "bidder",
          "type": "address"
        },
        {
          "indexed": false,
          "internalType": "uint256",
          "name": "amount",
          "type": "uint256"
        }
      ],
      "name": "Withdraw",
      "type": "event"
    },
    {
      "constant": false,
      "inputs": [
        {
          "internalType": "string",
          "name": "_domainame",
          "type": "string"
        },
        {
          "internalType": "string",
          "name": "_Ipv4",
          "type": "string"
        },
        {
          "internalType": "string",
          "name": "_Ipv6",
          "type": "string"
        }
      ],
      "name": "configureDomain",
      "outputs": [],
      "payable": true,
      "stateMutability": "payable",
      "type": "function"
    },
    {
      "constant": true,
      "inputs": [
        {
          "internalType": "string",
          "name": "_domainame",
          "type": "string"
        }
      ],
      "name": "getDomainInfo",
      "outputs": [
        {
          "internalType": "string",
          "name": "state",
          "type": "string"
        },
        {
          "internalType": "string",
          "name": "ipv4",
          "type": "string"
        },
        {
          "internalType": "string",
          "name": "ipv6",
          "type": "string"
        },
        {
          "internalType": "address",
          "name": "owner",
          "type": "address"
        }
      ],
      "payable": false,
      "stateMutability": "view",
      "type": "function"
    },
    {
      "constant": false,
      "inputs": [
        {
          "internalType": "string",
          "name": "_domainame",
          "type": "string"
        }
      ],
      "name": "claim",
      "outputs": [
        {
          "internalType": "bool",
          "name": "",
          "type": "bool"
        }
      ],
      "payable": false,
      "stateMutability": "nonpayable",
      "type": "function"
    },
    {
      "constant": false,
      "inputs": [
        {
          "internalType": "string",
          "name": "_domain",
          "type": "string"
        }
      ],
      "name": "bid",
      "outputs": [],
      "payable": true,
      "stateMutability": "payable",
      "type": "function"
    },
    {
      "constant": false,
      "inputs": [
        {
          "internalType": "string",
          "name": "_domain",
          "type": "string"
        }
      ],
      "name": "withdraw",
      "outputs": [
        {
          "internalType": "bool",
          "name": "",
          "type": "bool"
        }
      ],
      "payable": false,
      "stateMutability": "nonpayable",
      "type": "function"
    },
    {
      "constant": true,
      "inputs": [
        {
          "internalType": "string",
          "name": "_domain",
          "type": "string"
        }
      ],
      "name": "getAuctionState",
      "outputs": [
        {
          "internalType": "string",
          "name": "domain",
          "type": "string"
        },
        {
          "internalType": "address",
          "name": "higestBidder",
          "type": "address"
        },
        {
          "internalType": "uint256",
          "name": "highestBid",
          "type": "uint256"
        },
        {
          "internalType": "uint256",
          "name": "auctionEndTime",
          "type": "uint256"
        },
        {
          "internalType": "bool",
          "name": "claimed",
          "type": "bool"
        },
        {
          "internalType": "bool",
          "name": "exists",
          "type": "bool"
        },
        {
          "internalType": "bool",
          "name": "accountHasReturns",
          "type": "bool"
        }
      ],
      "payable": false,
      "stateMutability": "view",
      "type": "function"
    },
    {
      "constant": true,
      "inputs": [
        {
          "internalType": "string",
          "name": "_domain",
          "type": "string"
        }
      ],
      "name": "getAuctionStateReturns",
      "outputs": [
        {
          "internalType": "uint256",
          "name": "",
          "type": "uint256"
        }
      ],
      "payable": false,
      "stateMutability": "view",
      "type": "function"
    }
  ],
  "bytecode": "0x608060405234801561001057600080fd5b506126bf806100206000396000f3fe6080604052600436106100705760003560e01c80634889e1921161004e5780634889e192146103d45780637aef951c14610620578063f3fe12c9146106db578063f8355b68146107bb57610070565b806331fb67c2146100755780633f7bf6e414610155578063481efe97146102f8575b600080fd5b34801561008157600080fd5b5061013b6004803603602081101561009857600080fd5b81019080803590602001906401000000008111156100b557600080fd5b8201836020820111156100c757600080fd5b803590602001918460018302840111640100000000831117156100e957600080fd5b91908080601f016020809104026020016040519081016040528093929190818152602001838380828437600081840152601f19601f8201169050808301925050505050505091929192905050506109a4565b604051808215151515815260200191505060405180910390f35b34801561016157600080fd5b5061021b6004803603602081101561017857600080fd5b810190808035906020019064010000000081111561019557600080fd5b8201836020820111156101a757600080fd5b803590602001918460018302840111640100000000831117156101c957600080fd5b91908080601f016020809104026020016040519081016040528093929190818152602001838380828437600081840152601f19601f820116905080830192505050505050509192919290505050610c66565b60405180806020018873ffffffffffffffffffffffffffffffffffffffff1673ffffffffffffffffffffffffffffffffffffffff168152602001878152602001868152602001851515151581526020018415151515815260200183151515158152602001828103825289818151815260200191508051906020019080838360005b838110156102b757808201518184015260208101905061029c565b50505050905090810190601f1680156102e45780820380516001836020036101000a031916815260200191505b509850505050505050505060405180910390f35b34801561030457600080fd5b506103be6004803603602081101561031b57600080fd5b810190808035906020019064010000000081111561033857600080fd5b82018360208201111561034a57600080fd5b8035906020019184600183028401116401000000008311171561036c57600080fd5b91908080601f016020809104026020016040519081016040528093929190818152602001838380828437600081840152601f19601f820116905080830192505050505050509192919290505050610dae565b6040518082815260200191505060405180910390f35b3480156103e057600080fd5b5061049a600480360360208110156103f757600080fd5b810190808035906020019064010000000081111561041457600080fd5b82018360208201111561042657600080fd5b8035906020019184600183028401116401000000008311171561044857600080fd5b91908080601f016020809104026020016040519081016040528093929190818152602001838380828437600081840152601f19601f820116905080830192505050505050509192919290505050610e13565b604051808060200180602001806020018573ffffffffffffffffffffffffffffffffffffffff1673ffffffffffffffffffffffffffffffffffffffff168152602001848103845288818151815260200191508051906020019080838360005b838110156105145780820151818401526020810190506104f9565b50505050905090810190601f1680156105415780820380516001836020036101000a031916815260200191505b50848103835287818151815260200191508051906020019080838360005b8381101561057a57808201518184015260208101905061055f565b50505050905090810190601f1680156105a75780820380516001836020036101000a031916815260200191505b50848103825286818151815260200191508051906020019080838360005b838110156105e05780820151818401526020810190506105c5565b50505050905090810190601f16801561060d5780820380516001836020036101000a031916815260200191505b5097505050505050505060405180910390f35b6106d96004803603602081101561063657600080fd5b810190808035906020019064010000000081111561065357600080fd5b82018360208201111561066557600080fd5b8035906020019184600183028401116401000000008311171561068757600080fd5b91908080601f016020809104026020016040519081016040528093929190818152602001838380828437600081840152601f19601f820116905080830192505050505050509192919290505050610fd7565b005b3480156106e757600080fd5b506107a1600480360360208110156106fe57600080fd5b810190808035906020019064010000000081111561071b57600080fd5b82018360208201111561072d57600080fd5b8035906020019184600183028401116401000000008311171561074f57600080fd5b91908080601f016020809104026020016040519081016040528093929190818152602001838380828437600081840152601f19601f8201169050808301925050505050505091929192905050506116cf565b604051808215151515815260200191505060405180910390f35b6109a2600480360360608110156107d157600080fd5b81019080803590602001906401000000008111156107ee57600080fd5b82018360208201111561080057600080fd5b8035906020019184600183028401116401000000008311171561082257600080fd5b91908080601f016020809104026020016040519081016040528093929190818152602001838380828437600081840152601f19601f8201169050808301925050505050505091929192908035906020019064010000000081111561088557600080fd5b82018360208201111561089757600080fd5b803590602001918460018302840111640100000000831117156108b957600080fd5b91908080601f016020809104026020016040519081016040528093929190818152602001838380828437600081840152601f19601f8201169050808301925050505050505091929192908035906020019064010000000081111561091c57600080fd5b82018360208201111561092e57600080fd5b8035906020019184600183028401116401000000008311171561095057600080fd5b91908080601f016020809104026020016040519081016040528093929190818152602001838380828437600081840152601f19601f820116905080830192505050505050509192919290505050611d6c565b005b6000806109b083612055565b90506001600082815260200190815260200160002060040160019054906101000a900460ff16610a2b576040517f08c379a00000000000000000000000000000000000000000000000000000000081526004018080602001828103825260268152602001806125ed6026913960400191505060405180910390fd5b60006001600083815260200190815260200160002060030160003373ffffffffffffffffffffffffffffffffffffffff1673ffffffffffffffffffffffffffffffffffffffff1681526020019081526020016000205490506000811115610c5a5760006001600084815260200190815260200160002060030160003373ffffffffffffffffffffffffffffffffffffffff1673ffffffffffffffffffffffffffffffffffffffff168152602001908152602001600020819055503373ffffffffffffffffffffffffffffffffffffffff166108fc829081150290604051600060405180830381858888f19350505050610b8157806001600084815260200190815260200160002060030160003373ffffffffffffffffffffffffffffffffffffffff1673ffffffffffffffffffffffffffffffffffffffff16815260200190815260200160002081905550600092505050610c61565b7f7a5e5c901f9da945e2028bd646eb1f6842dff416e862cfa502e0d3408635143a84338360405180806020018473ffffffffffffffffffffffffffffffffffffffff1673ffffffffffffffffffffffffffffffffffffffff168152602001838152602001828103825285818151815260200191508051906020019080838360005b83811015610c1d578082015181840152602081019050610c02565b50505050905090810190601f168015610c4a5780820380516001836020036101000a031916815260200191505b5094505050505060405180910390a15b6001925050505b919050565b60606000806000806000806000610c7c89612055565b9050600080905060006001600084815260200190815260200160002060030160003373ffffffffffffffffffffffffffffffffffffffff1673ffffffffffffffffffffffffffffffffffffffff168152602001908152602001600020541115610ce457600190505b896001600084815260200190815260200160002060010160009054906101000a900473ffffffffffffffffffffffffffffffffffffffff16600160008581526020019081526020016000206002015460016000868152602001908152602001600020600001546001600087815260200190815260200160002060040160009054906101000a900460ff166001600088815260200190815260200160002060040160019054906101000a900460ff168698509850985098509850985098505050919395979092949650565b600060016000610dbd84612055565b815260200190815260200160002060030160003373ffffffffffffffffffffffffffffffffffffffff1673ffffffffffffffffffffffffffffffffffffffff168152602001908152602001600020549050919050565b6060806060600080610e2486612055565b9050610e2f816120d0565b60008083815260200190815260200160002060020160008084815260200190815260200160002060030160008085815260200190815260200160002060000160009054906101000a900473ffffffffffffffffffffffffffffffffffffffff16828054600181600116156101000203166002900480601f016020809104026020016040519081016040528092919081815260200182805460018160011615610100020316600290048015610f245780601f10610ef957610100808354040283529160200191610f24565b820191906000526020600020905b815481529060010190602001808311610f0757829003601f168201915b50505050509250818054600181600116156101000203166002900480601f016020809104026020016040519081016040528092919081815260200182805460018160011615610100020316600290048015610fc05780601f10610f9557610100808354040283529160200191610fc0565b820191906000526020600020905b815481529060010190602001808311610fa357829003601f168201915b505050505091509450945094509450509193509193565b6000610fe282612055565b905034674563918244f400001115611045576040517f08c379a00000000000000000000000000000000000000000000000000000000081526004018080602001828103825260278152602001806126396027913960400191505060405180910390fd5b60405160200180807f7265676973746572656400000000000000000000000000000000000000000000815250600a01905060405160208183030381529060405280519060200120611095826120d0565b6040516020018082805190602001908083835b602083106110cb57805182526020820191506020810190506020830392506110a8565b6001836020036101000a03801982511681845116808217855250505050505090500191505060405160208183030381529060405280519060200120141561117a576040517f08c379a000000000000000000000000000000000000000000000000000000000815260040180806020018281038252601f8152602001807f446f6d61696e206973206e6f74206672656520666f722061756374696f6e2e0081525060200191505060405180910390fd5b6001600082815260200190815260200160002060040160019054906101000a900460ff1661137357603c42016001600083815260200190815260200160002060000181905550336001600083815260200190815260200160002060010160006101000a81548173ffffffffffffffffffffffffffffffffffffffff021916908373ffffffffffffffffffffffffffffffffffffffff160217905550346001600083815260200190815260200160002060020181905550600180600083815260200190815260200160002060040160016101000a81548160ff02191690831515021790555060006001600083815260200190815260200160002060040160006101000a81548160ff0219169083151502179055507fb58d2ff6d5c49baa35d70b8a06a9750ff07a7e76647507467875b932c683a98d8282333460405180806020018581526020018473ffffffffffffffffffffffffffffffffffffffff1673ffffffffffffffffffffffffffffffffffffffff168152602001838152602001828103825286818151815260200191508051906020019080838360005b83811015611330578082015181840152602081019050611315565b50505050905090810190601f16801561135d5780820380516001836020036101000a031916815260200191505b509550505050505060405180910390a1506116cc565b60016000828152602001908152602001600020600001544211156113ff576040517f08c379a00000000000000000000000000000000000000000000000000000000081526004018080602001828103825260158152602001807f416374696f6e20616c726561647920656e6465642e000000000000000000000081525060200191505060405180910390fd5b6001600082815260200190815260200160002060000154601442011061142b5761142a82601461234a565b5b600160008281526020019081526020016000206002015434116114b6576040517f08c379a000000000000000000000000000000000000000000000000000000000815260040180806020018281038252601e8152602001807f546865726520616c7265616479206973206120686967686572206269642e000081525060200191505060405180910390fd5b60006001600083815260200190815260200160002060020154146115825760016000828152602001908152602001600020600201546001600083815260200190815260200160002060030160006001600085815260200190815260200160002060010160009054906101000a900473ffffffffffffffffffffffffffffffffffffffff1673ffffffffffffffffffffffffffffffffffffffff1673ffffffffffffffffffffffffffffffffffffffff168152602001908152602001600020600082825401925050819055505b336001600083815260200190815260200160002060010160006101000a81548173ffffffffffffffffffffffffffffffffffffffff021916908373ffffffffffffffffffffffffffffffffffffffff1602179055503460016000838152602001908152602001600020600201819055507f09ebc52e266ac5a74a7023baa944297cebe45e95d491a17e87d3ab92694bac5782333460405180806020018473ffffffffffffffffffffffffffffffffffffffff1673ffffffffffffffffffffffffffffffffffffffff168152602001838152602001828103825285818151815260200191508051906020019080838360005b8381101561168e578082015181840152602081019050611673565b50505050905090810190601f1680156116bb5780820380516001836020036101000a031916815260200191505b5094505050505060405180910390a1505b50565b6000806116db83612055565b90506001600082815260200190815260200160002060040160019054906101000a900460ff16611756576040517f08c379a00000000000000000000000000000000000000000000000000000000081526004018080602001828103825260268152602001806125ed6026913960400191505060405180910390fd5b3373ffffffffffffffffffffffffffffffffffffffff166001600083815260200190815260200160002060010160009054906101000a900473ffffffffffffffffffffffffffffffffffffffff1673ffffffffffffffffffffffffffffffffffffffff1614611810576040517f08c379a00000000000000000000000000000000000000000000000000000000081526004018080602001828103825260268152602001806126136026913960400191505060405180910390fd5b600160008281526020019081526020016000206000015442101561189c576040517f08c379a00000000000000000000000000000000000000000000000000000000081526004018080602001828103825260198152602001807f41756374696f6e206973207374696c6c2072756e6e696e672e0000000000000081525060200191505060405180910390fd5b6001600082815260200190815260200160002060040160009054906101000a900460ff1615611933576040517f08c379a000000000000000000000000000000000000000000000000000000000815260040180806020018281038252601b8152602001807f41756374696f6e20697320616c726561647920636c61696d65642e000000000081525060200191505060405180910390fd5b600180600083815260200190815260200160002060040160006101000a81548160ff0219169083151502179055507fa0fb15ce4bc38fa6151bf16630e38863764a7bb541866d083619bc5b6b93ad02836001600084815260200190815260200160002060010160009054906101000a900473ffffffffffffffffffffffffffffffffffffffff16600160008581526020019081526020016000206002015460405180806020018473ffffffffffffffffffffffffffffffffffffffff1673ffffffffffffffffffffffffffffffffffffffff168152602001838152602001828103825285818151815260200191508051906020019080838360005b83811015611a49578082015181840152602081019050611a2e565b50505050905090810190601f168015611a765780820380516001836020036101000a031916815260200191505b5094505050505060405180910390a1826000808381526020019081526020016000206001019080519060200190611aae929190612547565b503360008083815260200190815260200160002060000160006101000a81548173ffffffffffffffffffffffffffffffffffffffff021916908373ffffffffffffffffffffffffffffffffffffffff160217905550600160008083815260200190815260200160002060040160006101000a81548160ff02191690831515021790555060006001600083815260200190815260200160002060030160003373ffffffffffffffffffffffffffffffffffffffff1673ffffffffffffffffffffffffffffffffffffffff1681526020019081526020016000205490506000811115611d605760006001600084815260200190815260200160002060030160003373ffffffffffffffffffffffffffffffffffffffff1673ffffffffffffffffffffffffffffffffffffffff168152602001908152602001600020819055503373ffffffffffffffffffffffffffffffffffffffff166108fc829081150290604051600060405180830381858888f19350505050611c8757806001600084815260200190815260200160002060030160003373ffffffffffffffffffffffffffffffffffffffff1673ffffffffffffffffffffffffffffffffffffffff16815260200190815260200160002081905550600092505050611d67565b7f7a5e5c901f9da945e2028bd646eb1f6842dff416e862cfa502e0d3408635143a84338360405180806020018473ffffffffffffffffffffffffffffffffffffffff1673ffffffffffffffffffffffffffffffffffffffff168152602001838152602001828103825285818151815260200191508051906020019080838360005b83811015611d23578082015181840152602081019050611d08565b50505050905090810190601f168015611d505780820380516001836020036101000a031916815260200191505b5094505050505060405180910390a15b6001925050505b919050565b6000611d7784612055565b905060008082815260200190815260200160002060040160009054906101000a900460ff16611e0e576040517f08c379a00000000000000000000000000000000000000000000000000000000081526004018080602001828103825260168152602001807f446f6d61696e20646f6573206e6f742065786973742e0000000000000000000081525060200191505060405180910390fd5b60405160200180807f7265676973746572656400000000000000000000000000000000000000000000815250600a01905060405160208183030381529060405280519060200120611e5e826120d0565b6040516020018082805190602001908083835b60208310611e945780518252602082019150602081019050602083039250611e71565b6001836020036101000a0380198251168184511680821785525050505050509050019150506040516020818303038152906040528051906020012014611f42576040517f08c379a000000000000000000000000000000000000000000000000000000000815260040180806020018281038252601d8152602001807f446f6d61696e206973206e6f742079657420726567697374657265642e00000081525060200191505060405180910390fd5b3373ffffffffffffffffffffffffffffffffffffffff1660008083815260200190815260200160002060000160009054906101000a900473ffffffffffffffffffffffffffffffffffffffff1673ffffffffffffffffffffffffffffffffffffffff1614611ffb576040517f08c379a000000000000000000000000000000000000000000000000000000000815260040180806020018281038252602b815260200180612660602b913960400191505060405180910390fd5b826000808381526020019081526020016000206002019080519060200190612024929190612547565b5081600080838152602001908152602001600020600301908051906020019061204e929190612547565b5050505050565b6000816040516020018082805190602001908083835b6020831061208e578051825260208201915060208101905060208303925061206b565b6001836020036101000a038019825116818451168082178552505050505050905001915050604051602081830303815290604052805190602001209050919050565b606060008083815260200190815260200160002060040160009054906101000a900460ff1680156121635750600073ffffffffffffffffffffffffffffffffffffffff1660008084815260200190815260200160002060000160009054906101000a900473ffffffffffffffffffffffffffffffffffffffff1673ffffffffffffffffffffffffffffffffffffffff1614155b156121a5576040518060400160405280600a81526020017f72656769737465726564000000000000000000000000000000000000000000008152509050612345565b60008083815260200190815260200160002060040160009054906101000a900460ff161580156121f557506001600083815260200190815260200160002060040160019054906101000a900460ff165b8015612217575060016000838152602001908152602001600020600001544211155b15612259576040518060400160405280600981526020017f696e61756374696f6e00000000000000000000000000000000000000000000008152509050612345565b60008083815260200190815260200160002060040160009054906101000a900460ff161580156122a957506001600083815260200190815260200160002060040160019054906101000a900460ff165b80156122ca5750600160008381526020019081526020016000206000015442115b1561230c576040518060400160405280600e81526020017f746f6265726567697374657265640000000000000000000000000000000000008152509050612345565b6040518060400160405280600481526020017f667265650000000000000000000000000000000000000000000000000000000081525090505b919050565b600061235583612055565b90506001600082815260200190815260200160002060040160019054906101000a900460ff166123d0576040517f08c379a00000000000000000000000000000000000000000000000000000000081526004018080602001828103825260268152602001806125ed6026913960400191505060405180910390fd5b600160008281526020019081526020016000206000015442111561245c576040517f08c379a00000000000000000000000000000000000000000000000000000000081526004018080602001828103825260168152602001807f41756374696f6e206e6f742079657420656e6465642e0000000000000000000081525060200191505060405180910390fd5b8160016000838152602001908152602001600020600001600082825401925050819055507fd4923a380b98bf68c2a372f7bbd7d778cd6d7a96240fa100ead1ffeb73339f3f838360016000858152602001908152602001600020600001546040518080602001848152602001838152602001828103825285818151815260200191508051906020019080838360005b838110156125065780820151818401526020810190506124eb565b50505050905090810190601f1680156125335780820380516001836020036101000a031916815260200191505b5094505050505060405180910390a1505050565b828054600181600116156101000203166002900490600052602060002090601f016020900481019282601f1061258857805160ff19168380011785556125b6565b828001600101855582156125b6579182015b828111156125b557825182559160200191906001019061259a565b5b5090506125c391906125c7565b5090565b6125e991905b808211156125e55760008160009055506001016125cd565b5090565b9056fe4e6f206578697374696e672061756374696f6e20666f722077616e74656420646f6d61696e2e596f7520617265206e6f74207468652077696e6e6572206f66207468652061756374696f6e2e4d696e696d756d2062696420666f7220616e2061756374696f6e2069732035204574686572732e4572726f722c20796f7520617265206e6f7420746865206f776e6572206f66207468697320646f6d61696ea265627a7a7231582057e47a863e5e118d61477d034ab7b60bc29840cbc0c0d389ea5c33466e55ff2264736f6c63430005100032",
  "source": "pragma solidity >=0.5.0 <0.7.0;\r\n\r\n\r\ncontract DomainKeeper {\r\n\r\n    //struct to keep all the data of the registered domains:\r\n    struct iDomain {\r\n        address owner;\r\n        string domainname;\r\n        string Ipv4;\r\n        string Ipv6;\r\n        bool exists;\r\n    }\r\n\r\n    mapping(bytes32 => iDomain) domains;\r\n\r\n\r\n    /// Single place to do the domain name hashing.\r\n    function hashDomain(string memory domain) private pure returns (bytes32) {\r\n        return keccak256(abi.encodePacked(domain));\r\n    }\r\n\r\n    /// Figures out the current state of a domain\r\n    /// Possible states are: registered, inauction or free\r\n    function calcDomainState(bytes32 dHash) private view returns (string memory) {\r\n        if(domains[dHash].exists && domains[dHash].owner != address(0)) {\r\n            return \"registered\";\r\n        } else if(!domains[dHash].exists && auctions[dHash].exists && now <= auctions[dHash].auctionEndTime) {\r\n            return \"inauction\";\r\n        } else if(!domains[dHash].exists && auctions[dHash].exists && now > auctions[dHash].auctionEndTime) {\r\n            return \"toberegistered\";\r\n        } else{\r\n            return \"free\";\r\n        }\r\n    }\r\n\r\n    /// Function the user will call to modify the IPS\r\n    /// Only the owner of the domain is Allowed to change this information.\r\n    function configureDomain(string memory _domainame, string memory _Ipv4, string memory _Ipv6) public payable {\r\n        bytes32 dh = hashDomain(_domainame);\r\n\r\n        require(domains[dh].exists, \"Domain does not exist.\");\r\n        require(keccak256(abi.encodePacked(calcDomainState(dh))) == keccak256(abi.encodePacked(\"registered\")), \"Domain is not yet registered.\");\r\n        require(domains[dh].owner == msg.sender, \"Error, you are not the owner of this domain\");\r\n\r\n        domains[dh].Ipv4 = _Ipv4;\r\n        domains[dh].Ipv6 = _Ipv6;\r\n    }\r\n\r\n    /// Function that retunrs the information about a especifict domain\r\n   function getDomainInfo(string memory _domainame) public view returns (string memory state, string memory ipv4, string memory ipv6, address owner) {\r\n        bytes32 dh = hashDomain(_domainame);\r\n        return (calcDomainState(dh), domains[dh].Ipv4, domains[dh].Ipv6, domains[dh].owner);\r\n    }\r\n\r\n    /// The claim method is ending the auction and registers the domain name with the owner.\r\n    function claim(string memory _domainame) public returns (bool) {\r\n        bytes32 dh = hashDomain(_domainame);\r\n\r\n        require(auctions[dh].exists, \"No existing auction for wanted domain.\");\r\n        require(auctions[dh].highestBidder == msg.sender, \"You are not the winner of the auction.\");\r\n        require(now >= auctions[dh].auctionEndTime, \"Auction is still running.\");\r\n        require(!auctions[dh].claimed, \"Auction is already claimed.\");\r\n\r\n        // End Auction\r\n        auctions[dh].claimed = true;\r\n        emit AuctionEnded(_domainame, auctions[dh].highestBidder, auctions[dh].highestBid);\r\n\r\n        // Register Domain\r\n        domains[dh].domainname = _domainame;\r\n        domains[dh].owner = msg.sender;\r\n        domains[dh].exists = true;\r\n\r\n        // Return pendingReturns\r\n        uint256 amount = auctions[dh].pendingReturns[msg.sender];\r\n        if (amount > 0) {\r\n            auctions[dh].pendingReturns[msg.sender] = 0;\r\n\r\n            if (!msg.sender.send(amount)) {\r\n                // No need to call throw here, just reset the amount owing\r\n                auctions[dh].pendingReturns[msg.sender] = amount;\r\n                return false;\r\n            }\r\n            emit Withdraw(_domainame, msg.sender, amount);\r\n        }\r\n\r\n        return true;\r\n    }\r\n\r\n    /// This function is here only for checking the code works:\r\n    // function addDomain(string memory _domainame, address _owner) public {\r\n    //     bytes32 dh = hashDomain(_domainame);\r\n    //     domains[dh].domainname = _domainame;\r\n    //     domains[dh].owner = _owner;\r\n    //     domains[dh].exists = true;\r\n    // }\r\n\r\n    /// Retunrs the address of the owner of a domain:\r\n    // function getOwner(string memory _domainame) public view returns (address) {\r\n    //     bytes32 dh = hashDomain(_domainame);\r\n    //     require(bytes(domains[dh].domainname).length != 0, \"not domain register with that name\");\r\n    //     return domains[dh].owner;\r\n    // }\r\n\r\n    // ========================================================\r\n    // AUCTION STUFF\r\n    // Based on: https://solidity.readthedocs.io/en/v0.6.6/solidity-by-example.html#simple-open-auction\r\n    // ========================================================\r\n\r\n    uint constant AUCTION_MIN_PRICE_IN_WEI = 5000000000000000000; // is 5 Ether\r\n    uint constant AUCTION_DURATION = 1 minutes;\r\n    uint constant AUCTION_EXTENSION_TIME = 20 seconds;\r\n\r\n    struct iAuction {\r\n        uint256 auctionEndTime;\r\n        address highestBidder;\r\n        uint256 highestBid;\r\n        mapping(address => uint256) pendingReturns; // Allowed withdrawals of previous bids\r\n        bool claimed;\r\n        bool exists;\r\n    }\r\n\r\n    mapping(bytes32 => iAuction) auctions;\r\n\r\n    // Auction Events\r\n    event AuctionStarted(string domain, bytes32 dHash, address account, uint256 amount);\r\n    event AuctionEnded(string domain, address winner, uint256 amount);\r\n    event AuctionExtended(string domain, uint extensionTime, uint newEndTime);\r\n    event HighestBidIncreased(string domain, address bidder, uint256 amount);\r\n    event Withdraw(string domain, address bidder, uint256 amount);\r\n\r\n\r\n    /// Bid on the auction with the value sent together with this transaction.\r\n    /// The value will only be refunded if the auction is not won.\r\n    function bid(string memory _domain) public payable {\r\n        bytes32 dh = hashDomain(_domain);\r\n\r\n        // Check min bid value.\r\n        require(AUCTION_MIN_PRICE_IN_WEI <= msg.value, \"Minimum bid for an auction is 5 Ethers.\");\r\n\r\n        // Check domain state, cannot be registered domain.\r\n        require(keccak256(abi.encodePacked(calcDomainState(dh))) != keccak256(abi.encodePacked(\"registered\")), \"Domain is not free for auction.\");\r\n\r\n        // create new auction if no entry is available.\r\n        if (!auctions[dh].exists) {\r\n            auctions[dh].auctionEndTime = now + AUCTION_DURATION;\r\n            auctions[dh].highestBidder = msg.sender;\r\n            auctions[dh].highestBid = msg.value;\r\n            auctions[dh].exists = true;\r\n            auctions[dh].claimed = false;\r\n\r\n            emit AuctionStarted(_domain, dh, msg.sender, msg.value);\r\n            return;\r\n        }\r\n\r\n        // Revert if auction already claimed\r\n        // require(!auctions[dh].claimed, \"Auction already claimed.\");\r\n\r\n       // Revert if auction already ended\r\n        require(now <= auctions[dh].auctionEndTime, \"Action already ended.\");\r\n\r\n        // Extend auction.\r\n        if(now + AUCTION_EXTENSION_TIME >= auctions[dh].auctionEndTime){\r\n            extendAuction(_domain, AUCTION_EXTENSION_TIME);\r\n        }\r\n\r\n        // If the bid is not higher, send the money back.\r\n        require(msg.value > auctions[dh].highestBid, \"There already is a higher bid.\");\r\n\r\n        if (auctions[dh].highestBid != 0) {\r\n            // Let the recipients withdraw their money themselves with withdraw().\r\n            auctions[dh].pendingReturns[auctions[dh].highestBidder] += auctions[dh].highestBid;\r\n        }\r\n        auctions[dh].highestBidder = msg.sender;\r\n        auctions[dh].highestBid = msg.value;\r\n\r\n        emit HighestBidIncreased(_domain, msg.sender, msg.value);\r\n    }\r\n\r\n    /// Withraw bids that did not win.\r\n    function withdraw(string memory _domain) public returns (bool)  {\r\n        bytes32 dh = hashDomain(_domain);\r\n\r\n        require(auctions[dh].exists, \"No existing auction for wanted domain.\");\r\n\r\n        uint256 amount = auctions[dh].pendingReturns[msg.sender];\r\n        if (amount > 0) {\r\n            // It is important to set this to zero because the recipient\r\n            // can call this function again as part of the receiving call\r\n            // before `send` returns.\r\n            auctions[dh].pendingReturns[msg.sender] = 0;\r\n\r\n            if (!msg.sender.send(amount)) {\r\n                // No need to call throw here, just reset the amount owing\r\n                auctions[dh].pendingReturns[msg.sender] = amount;\r\n                return false;\r\n            }\r\n\r\n            emit Withdraw(_domain, msg.sender, amount);\r\n        }\r\n        return true;\r\n    }\r\n\r\n    /// Extend the auction time.\r\n    function extendAuction(string memory _domain, uint _extensionTime) internal {\r\n        bytes32 dh = hashDomain(_domain);\r\n\r\n        // 1. Conditions\r\n        require(auctions[dh].exists, \"No existing auction for wanted domain.\");\r\n        require(now <= auctions[dh].auctionEndTime, \"Auction not yet ended.\");\r\n\r\n        // 2. Effects\r\n        auctions[dh].auctionEndTime += _extensionTime;\r\n        emit AuctionExtended(_domain, _extensionTime, auctions[dh].auctionEndTime);\r\n    }\r\n\r\n    /// Lets you check the state of an auction and returns the following attributes:\r\n    /// - Domain\r\n    /// - Address of highest bidder\r\n    /// - Amount of the highest bid\r\n    /// - Auction end time\r\n    /// - Flag indicating if domain was claimed or not\r\n    /// - Flag indicating if exists or not\r\n    function getAuctionState(string memory _domain) public view returns (string memory domain, address higestBidder, uint256 highestBid, uint256 auctionEndTime, bool claimed, bool exists, bool accountHasReturns) {\r\n        bytes32 dh = hashDomain(_domain);\r\n\r\n        bool hasReturns = false;\r\n        if(auctions[dh].pendingReturns[msg.sender] > 0 ) {\r\n            hasReturns = true;\r\n        }\r\n\r\n        return (\r\n            _domain,\r\n            auctions[dh].highestBidder,\r\n            auctions[dh].highestBid, \r\n            auctions[dh].auctionEndTime,\r\n            auctions[dh].claimed,\r\n            auctions[dh].exists,\r\n            hasReturns\r\n        );\r\n    }\r\n\r\n    // function getAuctionStateBidder(string memory _domain) public view returns (address) {\r\n    //     return (auctions[hashDomain(_domain)].highestBidder);\r\n    // }\r\n\r\n    // function getAuctionStateBid(string memory _domain) public view returns (uint256) {\r\n    //     return (auctions[hashDomain(_domain)].highestBid);\r\n    // }\r\n\r\n    // function getAuctionStateExists(string memory _domain) public view returns (bool) {\r\n    //     return (auctions[hashDomain(_domain)].exists);\r\n    // }\r\n\r\n     function getAuctionStateReturns(string memory _domain) public view returns (uint256) {\r\n         return (auctions[hashDomain(_domain)].pendingReturns[msg.sender]);\r\n     }\r\n\r\n}\r\n",
  "sourcePath": "C:\\Users\\Dani\\Downloads\\School\\Distributionly\\contracts\\DomainKeeper.sol",
  "compiler": {
    "name": "solc",
    "version": "0.5.16+commit.9c3226ce.Emscripten.clang"
  },
  "schemaVersion": "3.1.0",
  "updatedAt": "2020-05-12T12:33:46.016Z",
  "networkType": "ethereum",
  "devdoc": {
    "methods": {}
  },
  "userdoc": {
    "methods": {
      "bid(string)": {
        "notice": "Bid on the auction with the value sent together with this transaction. The value will only be refunded if the auction is not won."
      },
      "claim(string)": {
        "notice": "The claim method is ending the auction and registers the domain name with the owner."
      },
      "configureDomain(string,string,string)": {
        "notice": "Function the user will call to modify the IPS Only the owner of the domain is Allowed to change this information."
      },
      "getAuctionState(string)": {
        "notice": "Lets you check the state of an auction and returns the following attributes: - Domain - Address of highest bidder - Amount of the highest bid - Auction end time - Flag indicating if domain was claimed or not - Flag indicating if exists or not"
      },
      "getDomainInfo(string)": {
        "notice": "Function that retunrs the information about a especifict domain"
      },
      "withdraw(string)": {
        "notice": "Withraw bids that did not win."
      }
    }
  }
}