{
  "contractName": "MyContract",
  "abi": [
    {
      "constant": true,
      "inputs": [],
      "name": "storedString",
      "outputs": [
        {
          "internalType": "string",
          "name": "",
          "type": "string"
        }
      ],
      "payable": false,
      "stateMutability": "view",
      "type": "function"
    },
    {
      "constant": false,
      "inputs": [
        {
          "internalType": "uint256",
          "name": "x",
          "type": "uint256"
        }
      ],
      "name": "mySet",
      "outputs": [],
      "payable": false,
      "stateMutability": "nonpayable",
      "type": "function"
    },
    {
      "constant": false,
      "inputs": [
        {
          "internalType": "uint256",
          "name": "x",
          "type": "uint256"
        }
      ],
      "name": "set",
      "outputs": [],
      "payable": false,
      "stateMutability": "nonpayable",
      "type": "function"
    },
    {
      "constant": false,
      "inputs": [
        {
          "internalType": "string",
          "name": "s",
          "type": "string"
        }
      ],
      "name": "setString",
      "outputs": [],
      "payable": false,
      "stateMutability": "nonpayable",
      "type": "function"
    },
    {
      "constant": true,
      "inputs": [],
      "name": "myGet",
      "outputs": [
        {
          "internalType": "uint256",
          "name": "",
          "type": "uint256"
        }
      ],
      "payable": false,
      "stateMutability": "view",
      "type": "function"
    },
    {
      "constant": true,
      "inputs": [],
      "name": "get",
      "outputs": [
        {
          "internalType": "uint256",
          "name": "",
          "type": "uint256"
        }
      ],
      "payable": false,
      "stateMutability": "view",
      "type": "function"
    }
  ],
  "bytecode": "0x60806040526040518060400160405280600481526020017f61616161000000000000000000000000000000000000000000000000000000008152506001908051906020019061004f929190610062565b5034801561005c57600080fd5b50610107565b828054600181600116156101000203166002900490600052602060002090601f016020900481019282601f106100a357805160ff19168380011785556100d1565b828001600101855582156100d1579182015b828111156100d05782518255916020019190600101906100b5565b5b5090506100de91906100e2565b5090565b61010491905b808211156101005760008160009055506001016100e8565b5090565b90565b610400806101166000396000f3fe608060405234801561001057600080fd5b50600436106100625760003560e01c806302dd56d014610067578063570a9081146100ea57806360fe47b1146101085780636d4ce63c146101365780637fcaf66614610154578063e41af1941461020f575b600080fd5b61006f61023d565b6040518080602001828103825283818151815260200191508051906020019080838360005b838110156100af578082015181840152602081019050610094565b50505050905090810190601f1680156100dc5780820380516001836020036101000a031916815260200191505b509250505060405180910390f35b6100f26102db565b6040518082815260200191505060405180910390f35b6101346004803603602081101561011e57600080fd5b81019080803590602001909291905050506102e8565b005b61013e6102f2565b6040518082815260200191505060405180910390f35b61020d6004803603602081101561016a57600080fd5b810190808035906020019064010000000081111561018757600080fd5b82018360208201111561019957600080fd5b803590602001918460018302840111640100000000831117156101bb57600080fd5b91908080601f016020809104026020016040519081016040528093929190818152602001838380828437600081840152601f19601f8201169050808301925050505050505091929192905050506102ff565b005b61023b6004803603602081101561022557600080fd5b8101908080359060200190929190505050610319565b005b60018054600181600116156101000203166002900480601f0160208091040260200160405190810160405280929190818152602001828054600181600116156101000203166002900480156102d35780601f106102a8576101008083540402835291602001916102d3565b820191906000526020600020905b8154815290600101906020018083116102b657829003601f168201915b505050505081565b6000600160005401905090565b8060008190555050565b6000600160005401905090565b8060019080519060200190610315929190610326565b5050565b6002810160008190555050565b828054600181600116156101000203166002900490600052602060002090601f016020900481019282601f1061036757805160ff1916838001178555610395565b82800160010185558215610395579182015b82811115610394578251825591602001919060010190610379565b5b5090506103a291906103a6565b5090565b6103c891905b808211156103c45760008160009055506001016103ac565b5090565b9056fea265627a7a7231582093b3ecf41a6d66d8f65ec965bae38fa24ffe6560fc056b22b6552a19ef9a2ec764736f6c63430005100032",
  "source": "pragma solidity 0.5.16;\r\n\r\ncontract MyContract {\r\n    uint storedData;\r\n    string public storedString = \"aaaa\";\r\n\r\n    function mySet(uint x) public {\r\n        storedData = x + 2;\r\n    }\r\n\r\n    function set(uint x) public {\r\n      storedData = x;\r\n    }\r\n\r\n    function setString(string memory s) public {\r\n        storedString = s;\r\n    }\r\n\r\n    function myGet() public view returns (uint) {\r\n      return storedData + 1;\r\n    }\r\n\r\n    function get() public view returns (uint) {\r\n      return storedData + 1;\r\n    }\r\n}\r\n",
  "sourcePath": "C:\\Users\\Dani\\Downloads\\School\\Truffle\\contracts\\MyContract.sol",
  "compiler": {
    "name": "solc",
    "version": "0.5.16+commit.9c3226ce.Emscripten.clang"
  },
  "schemaVersion": "3.1.0",
  "updatedAt": "2020-05-08T15:16:04.220Z",
  "networkType": "ethereum",
  "devdoc": {
    "methods": {}
  },
  "userdoc": {
    "methods": {}
  }
}