{
  "contractName": "SimpleAuction",
  "abi": [
    {
      "inputs": [],
      "payable": false,
      "stateMutability": "nonpayable",
      "type": "constructor"
    },
    {
      "constant": true,
      "inputs": [],
      "name": "auctionEndTime",
      "outputs": [
        {
          "internalType": "uint256",
          "name": "",
          "type": "uint256"
        }
      ],
      "payable": false,
      "stateMutability": "view",
      "type": "function"
    },
    {
      "constant": true,
      "inputs": [],
      "name": "highestBid",
      "outputs": [
        {
          "internalType": "uint256",
          "name": "",
          "type": "uint256"
        }
      ],
      "payable": false,
      "stateMutability": "view",
      "type": "function"
    },
    {
      "constant": true,
      "inputs": [],
      "name": "getAuctionEndTime",
      "outputs": [
        {
          "internalType": "uint256",
          "name": "",
          "type": "uint256"
        }
      ],
      "payable": false,
      "stateMutability": "view",
      "type": "function"
    },
    {
      "constant": false,
      "inputs": [],
      "name": "bid",
      "outputs": [],
      "payable": true,
      "stateMutability": "payable",
      "type": "function"
    }
  ],
  "bytecode": "0x608060405234801561001057600080fd5b506064420160008190555061019a8061002a6000396000f3fe60806040526004361061003f5760003560e01c80631998aeef146100445780634b449cba1461004e578063787c0a6c14610079578063d57bde79146100a4575b600080fd5b61004c6100cf565b005b34801561005a57600080fd5b50610063610150565b6040518082815260200191505060405180910390f35b34801561008557600080fd5b5061008e610156565b6040518082815260200191505060405180910390f35b3480156100b057600080fd5b506100b961015f565b6040518082815260200191505060405180910390f35b600054421115610147576040517f08c379a00000000000000000000000000000000000000000000000000000000081526004018080602001828103825260168152602001807f41756374696f6e20616c726561647920656e6465642e0000000000000000000081525060200191505060405180910390fd5b34600181905550565b60005481565b60008054905090565b6001548156fea265627a7a72315820cb4787051b3296f8493c36e7b0290b13063b5b8f99b878e77f959c33e38be1f464736f6c63430005100032",
  "source": "pragma solidity >=0.4.25 <0.7.0;\n\ncontract SimpleAuction {\n\n    uint public auctionEndTime;\n    uint public highestBid;\n\n    constructor( \n        //uint _biddingTime\n    ) public {\n        auctionEndTime = now + 100;\n    }\n\n    function getAuctionEndTime() public view returns(uint) {\n\t\treturn auctionEndTime;\n\t}\n\n    function bid() public payable {\n\n        require(now <= auctionEndTime, \"Auction already ended.\");\n\n        //require(msg.value > highestBid, \"There already is a higher bid.\");\n        //highestBidder = msg.sender;\n\n        highestBid = msg.value;\n\n    }\n\n}",
  "sourcePath": "/home/mangoman/Workspace/BCOLN/Distributionly/Auction/contracts/SimpleAuction.sol",
  "compiler": {
    "name": "solc",
    "version": "0.5.16+commit.9c3226ce.Emscripten.clang"
  },
  "schemaVersion": "3.1.0",
  "updatedAt": "2020-04-24T22:18:21.046Z",
  "networkType": "ethereum",
  "devdoc": {
    "methods": {}
  },
  "userdoc": {
    "methods": {}
  }
}